{
  "_format": "hh-sol-artifact-1",
  "contractName": "MSCollectible",
  "sourceName": "contracts/MSCollectible.sol",
  "abi": [
    {
      "inputs": [
        {
          "internalType": "string",
          "name": "baseURI",
          "type": "string"
        }
      ],
      "stateMutability": "nonpayable",
      "type": "constructor"
    },
    {
      "anonymous": false,
      "inputs": [
        {
          "indexed": true,
          "internalType": "address",
          "name": "owner",
          "type": "address"
        },
        {
          "indexed": true,
          "internalType": "address",
          "name": "approved",
          "type": "address"
        },
        {
          "indexed": true,
          "internalType": "uint256",
          "name": "tokenId",
          "type": "uint256"
        }
      ],
      "name": "Approval",
      "type": "event"
    },
    {
      "anonymous": false,
      "inputs": [
        {
          "indexed": true,
          "internalType": "address",
          "name": "owner",
          "type": "address"
        },
        {
          "indexed": true,
          "internalType": "address",
          "name": "operator",
          "type": "address"
        },
        {
          "indexed": false,
          "internalType": "bool",
          "name": "approved",
          "type": "bool"
        }
      ],
      "name": "ApprovalForAll",
      "type": "event"
    },
    {
      "anonymous": false,
      "inputs": [
        {
          "indexed": true,
          "internalType": "address",
          "name": "previousOwner",
          "type": "address"
        },
        {
          "indexed": true,
          "internalType": "address",
          "name": "newOwner",
          "type": "address"
        }
      ],
      "name": "OwnershipTransferred",
      "type": "event"
    },
    {
      "anonymous": false,
      "inputs": [
        {
          "indexed": true,
          "internalType": "address",
          "name": "from",
          "type": "address"
        },
        {
          "indexed": true,
          "internalType": "address",
          "name": "to",
          "type": "address"
        },
        {
          "indexed": true,
          "internalType": "uint256",
          "name": "tokenId",
          "type": "uint256"
        }
      ],
      "name": "Transfer",
      "type": "event"
    },
    {
      "inputs": [],
      "name": "MARKETADDRESS",
      "outputs": [
        {
          "internalType": "address",
          "name": "",
          "type": "address"
        }
      ],
      "stateMutability": "view",
      "type": "function"
    },
    {
      "inputs": [],
      "name": "MAX_PER_MINT",
      "outputs": [
        {
          "internalType": "uint256",
          "name": "",
          "type": "uint256"
        }
      ],
      "stateMutability": "view",
      "type": "function"
    },
    {
      "inputs": [],
      "name": "MAX_SUPPLY",
      "outputs": [
        {
          "internalType": "uint256",
          "name": "",
          "type": "uint256"
        }
      ],
      "stateMutability": "view",
      "type": "function"
    },
    {
      "inputs": [],
      "name": "PRICE",
      "outputs": [
        {
          "internalType": "uint256",
          "name": "",
          "type": "uint256"
        }
      ],
      "stateMutability": "view",
      "type": "function"
    },
    {
      "inputs": [
        {
          "internalType": "address",
          "name": "to",
          "type": "address"
        },
        {
          "internalType": "uint256",
          "name": "tokenId",
          "type": "uint256"
        }
      ],
      "name": "approve",
      "outputs": [],
      "stateMutability": "nonpayable",
      "type": "function"
    },
    {
      "inputs": [
        {
          "internalType": "address[]",
          "name": "_address",
          "type": "address[]"
        }
      ],
      "name": "approvedAddresses",
      "outputs": [],
      "stateMutability": "nonpayable",
      "type": "function"
    },
    {
      "inputs": [
        {
          "internalType": "address",
          "name": "owner",
          "type": "address"
        }
      ],
      "name": "balanceOf",
      "outputs": [
        {
          "internalType": "uint256",
          "name": "",
          "type": "uint256"
        }
      ],
      "stateMutability": "view",
      "type": "function"
    },
    {
      "inputs": [],
      "name": "baseTokenURI",
      "outputs": [
        {
          "internalType": "string",
          "name": "",
          "type": "string"
        }
      ],
      "stateMutability": "view",
      "type": "function"
    },
    {
      "inputs": [
        {
          "internalType": "uint256",
          "name": "tokenId",
          "type": "uint256"
        }
      ],
      "name": "getApproved",
      "outputs": [
        {
          "internalType": "address",
          "name": "",
          "type": "address"
        }
      ],
      "stateMutability": "view",
      "type": "function"
    },
    {
      "inputs": [
        {
          "internalType": "address",
          "name": "",
          "type": "address"
        }
      ],
      "name": "isApprovedAddress",
      "outputs": [
        {
          "internalType": "bool",
          "name": "",
          "type": "bool"
        }
      ],
      "stateMutability": "view",
      "type": "function"
    },
    {
      "inputs": [
        {
          "internalType": "address",
          "name": "owner",
          "type": "address"
        },
        {
          "internalType": "address",
          "name": "operator",
          "type": "address"
        }
      ],
      "name": "isApprovedForAll",
      "outputs": [
        {
          "internalType": "bool",
          "name": "",
          "type": "bool"
        }
      ],
      "stateMutability": "view",
      "type": "function"
    },
    {
      "inputs": [
        {
          "internalType": "uint256",
          "name": "_count",
          "type": "uint256"
        }
      ],
      "name": "mintNFTs",
      "outputs": [],
      "stateMutability": "payable",
      "type": "function"
    },
    {
      "inputs": [],
      "name": "name",
      "outputs": [
        {
          "internalType": "string",
          "name": "",
          "type": "string"
        }
      ],
      "stateMutability": "view",
      "type": "function"
    },
    {
      "inputs": [],
      "name": "owner",
      "outputs": [
        {
          "internalType": "address",
          "name": "",
          "type": "address"
        }
      ],
      "stateMutability": "view",
      "type": "function"
    },
    {
      "inputs": [
        {
          "internalType": "uint256",
          "name": "tokenId",
          "type": "uint256"
        }
      ],
      "name": "ownerOf",
      "outputs": [
        {
          "internalType": "address",
          "name": "",
          "type": "address"
        }
      ],
      "stateMutability": "view",
      "type": "function"
    },
    {
      "inputs": [],
      "name": "renounceOwnership",
      "outputs": [],
      "stateMutability": "nonpayable",
      "type": "function"
    },
    {
      "inputs": [
        {
          "internalType": "address",
          "name": "from",
          "type": "address"
        },
        {
          "internalType": "address",
          "name": "to",
          "type": "address"
        },
        {
          "internalType": "uint256",
          "name": "tokenId",
          "type": "uint256"
        }
      ],
      "name": "safeTransferFrom",
      "outputs": [],
      "stateMutability": "nonpayable",
      "type": "function"
    },
    {
      "inputs": [
        {
          "internalType": "address",
          "name": "from",
          "type": "address"
        },
        {
          "internalType": "address",
          "name": "to",
          "type": "address"
        },
        {
          "internalType": "uint256",
          "name": "tokenId",
          "type": "uint256"
        },
        {
          "internalType": "bytes",
          "name": "_data",
          "type": "bytes"
        }
      ],
      "name": "safeTransferFrom",
      "outputs": [],
      "stateMutability": "nonpayable",
      "type": "function"
    },
    {
      "inputs": [
        {
          "internalType": "address",
          "name": "operator",
          "type": "address"
        },
        {
          "internalType": "bool",
          "name": "approved",
          "type": "bool"
        }
      ],
      "name": "setApprovalForAll",
      "outputs": [],
      "stateMutability": "nonpayable",
      "type": "function"
    },
    {
      "inputs": [
        {
          "internalType": "string",
          "name": "_baseTokenURI",
          "type": "string"
        }
      ],
      "name": "setBaseURI",
      "outputs": [],
      "stateMutability": "nonpayable",
      "type": "function"
    },
    {
      "inputs": [
        {
          "internalType": "address",
          "name": "marketAddress",
          "type": "address"
        }
      ],
      "name": "setMarketPlace",
      "outputs": [],
      "stateMutability": "nonpayable",
      "type": "function"
    },
    {
      "inputs": [
        {
          "internalType": "bytes4",
          "name": "interfaceId",
          "type": "bytes4"
        }
      ],
      "name": "supportsInterface",
      "outputs": [
        {
          "internalType": "bool",
          "name": "",
          "type": "bool"
        }
      ],
      "stateMutability": "view",
      "type": "function"
    },
    {
      "inputs": [],
      "name": "symbol",
      "outputs": [
        {
          "internalType": "string",
          "name": "",
          "type": "string"
        }
      ],
      "stateMutability": "view",
      "type": "function"
    },
    {
      "inputs": [
        {
          "internalType": "uint256",
          "name": "index",
          "type": "uint256"
        }
      ],
      "name": "tokenByIndex",
      "outputs": [
        {
          "internalType": "uint256",
          "name": "",
          "type": "uint256"
        }
      ],
      "stateMutability": "view",
      "type": "function"
    },
    {
      "inputs": [
        {
          "internalType": "address",
          "name": "owner",
          "type": "address"
        },
        {
          "internalType": "uint256",
          "name": "index",
          "type": "uint256"
        }
      ],
      "name": "tokenOfOwnerByIndex",
      "outputs": [
        {
          "internalType": "uint256",
          "name": "",
          "type": "uint256"
        }
      ],
      "stateMutability": "view",
      "type": "function"
    },
    {
      "inputs": [
        {
          "internalType": "uint256",
          "name": "tokenId",
          "type": "uint256"
        }
      ],
      "name": "tokenURI",
      "outputs": [
        {
          "internalType": "string",
          "name": "",
          "type": "string"
        }
      ],
      "stateMutability": "view",
      "type": "function"
    },
    {
      "inputs": [
        {
          "internalType": "address",
          "name": "_owner",
          "type": "address"
        }
      ],
      "name": "tokensOfOwner",
      "outputs": [
        {
          "internalType": "uint256[]",
          "name": "",
          "type": "uint256[]"
        }
      ],
      "stateMutability": "view",
      "type": "function"
    },
    {
      "inputs": [],
      "name": "totalSupply",
      "outputs": [
        {
          "internalType": "uint256",
          "name": "",
          "type": "uint256"
        }
      ],
      "stateMutability": "view",
      "type": "function"
    },
    {
      "inputs": [
        {
          "internalType": "address",
          "name": "from",
          "type": "address"
        },
        {
          "internalType": "address",
          "name": "to",
          "type": "address"
        },
        {
          "internalType": "uint256",
          "name": "tokenId",
          "type": "uint256"
        }
      ],
      "name": "transferFrom",
      "outputs": [],
      "stateMutability": "nonpayable",
      "type": "function"
    },
    {
      "inputs": [
        {
          "internalType": "address",
          "name": "newOwner",
          "type": "address"
        }
      ],
      "name": "transferOwnership",
      "outputs": [],
      "stateMutability": "nonpayable",
      "type": "function"
    },
    {
      "inputs": [],
      "name": "withdraw",
      "outputs": [],
      "stateMutability": "payable",
      "type": "function"
    }
  ],
  "bytecode": "0x60806040523480156200001157600080fd5b50604051620052d9380380620052d983398181016040528101906200003791906200065f565b6040518060400160405280600b81526020017f4e4654204d5353717561640000000000000000000000000000000000000000008152506040518060400160405280600581526020017f414b4c52530000000000000000000000000000000000000000000000000000008152508160009080519060200190620000bb9291906200053d565b508060019080519060200190620000d49291906200053d565b505050620000f7620000eb6200019860201b60201c565b620001a060201b60201c565b62000108816200026660201b60201c565b60005b6014811015620001805780600e826014811062000151577f4e487b7100000000000000000000000000000000000000000000000000000000600052603260045260246000fd5b01600082825462000163919062000795565b9250508190555080806200017790620008d9565b9150506200010b565b50620001916200031160201b60201c565b5062000a5f565b600033905090565b6000600b60009054906101000a900473ffffffffffffffffffffffffffffffffffffffff16905081600b60006101000a81548173ffffffffffffffffffffffffffffffffffffffff021916908373ffffffffffffffffffffffffffffffffffffffff1602179055508173ffffffffffffffffffffffffffffffffffffffff168173ffffffffffffffffffffffffffffffffffffffff167f8be0079c531659141344cd1fd0a4f28419497f9722a3daafe3b4186f6b6457e060405160405180910390a35050565b620002766200019860201b60201c565b73ffffffffffffffffffffffffffffffffffffffff166200029c6200051360201b60201c565b73ffffffffffffffffffffffffffffffffffffffff1614620002f5576040517f08c379a0000000000000000000000000000000000000000000000000000000008152600401620002ec9062000703565b60405180910390fd5b80600c90805190602001906200030d9291906200053d565b5050565b620003216200019860201b60201c565b73ffffffffffffffffffffffffffffffffffffffff16620003476200051360201b60201c565b73ffffffffffffffffffffffffffffffffffffffff1614620003a0576040517f08c379a0000000000000000000000000000000000000000000000000000000008152600401620003979062000703565b60405180910390fd5b60005b60148110156200051057600060016014620003bf9190620007f2565b42604051602001620003d29190620006e6565b6040516020818303038152906040528051906020012060001c620003f7919062000931565b90506000600e826014811062000436577f4e487b7100000000000000000000000000000000000000000000000000000000600052603260045260246000fd5b01549050600e836014811062000475577f4e487b7100000000000000000000000000000000000000000000000000000000600052603260045260246000fd5b0154600e8360148110620004b2577f4e487b7100000000000000000000000000000000000000000000000000000000600052603260045260246000fd5b018190555080600e8460148110620004f3577f4e487b7100000000000000000000000000000000000000000000000000000000600052603260045260246000fd5b0181905550505080806200050790620008d9565b915050620003a3565b50565b6000600b60009054906101000a900473ffffffffffffffffffffffffffffffffffffffff16905090565b8280546200054b906200086d565b90600052602060002090601f0160209004810192826200056f5760008555620005bb565b82601f106200058a57805160ff1916838001178555620005bb565b82800160010185558215620005bb579182015b82811115620005ba5782518255916020019190600101906200059d565b5b509050620005ca9190620005ce565b5090565b5b80821115620005e9576000816000905550600101620005cf565b5090565b600062000604620005fe846200074e565b62000725565b9050828152602081018484840111156200061d57600080fd5b6200062a84828562000837565b509392505050565b600082601f8301126200064457600080fd5b815162000656848260208601620005ed565b91505092915050565b6000602082840312156200067257600080fd5b600082015167ffffffffffffffff8111156200068d57600080fd5b6200069b8482850162000632565b91505092915050565b6000620006b360208362000784565b9150620006c08262000a36565b602082019050919050565b620006e0620006da826200082d565b62000927565b82525050565b6000620006f48284620006cb565b60208201915081905092915050565b600060208201905081810360008301526200071e81620006a4565b9050919050565b60006200073162000744565b90506200073f8282620008a3565b919050565b6000604051905090565b600067ffffffffffffffff8211156200076c576200076b620009f6565b5b620007778262000a25565b9050602081019050919050565b600082825260208201905092915050565b6000620007a2826200082d565b9150620007af836200082d565b9250827fffffffffffffffffffffffffffffffffffffffffffffffffffffffffffffffff03821115620007e757620007e662000969565b5b828201905092915050565b6000620007ff826200082d565b91506200080c836200082d565b92508282101562000822576200082162000969565b5b828203905092915050565b6000819050919050565b60005b83811015620008575780820151818401526020810190506200083a565b8381111562000867576000848401525b50505050565b600060028204905060018216806200088657607f821691505b602082108114156200089d576200089c620009c7565b5b50919050565b620008ae8262000a25565b810181811067ffffffffffffffff82111715620008d057620008cf620009f6565b5b80604052505050565b6000620008e6826200082d565b91507fffffffffffffffffffffffffffffffffffffffffffffffffffffffffffffffff8214156200091c576200091b62000969565b5b600182019050919050565b6000819050919050565b60006200093e826200082d565b91506200094b836200082d565b9250826200095e576200095d62000998565b5b828206905092915050565b7f4e487b7100000000000000000000000000000000000000000000000000000000600052601160045260246000fd5b7f4e487b7100000000000000000000000000000000000000000000000000000000600052601260045260246000fd5b7f4e487b7100000000000000000000000000000000000000000000000000000000600052602260045260246000fd5b7f4e487b7100000000000000000000000000000000000000000000000000000000600052604160045260246000fd5b6000601f19601f8301169050919050565b7f4f776e61626c653a2063616c6c6572206973206e6f7420746865206f776e6572600082015250565b61486a8062000a6f6000396000f3fe6080604052600436106101d85760003560e01c806355f804b31161010257806395d89b4111610095578063c87b56dd11610064578063c87b56dd146106a2578063d547cfb7146106df578063e985e9c51461070a578063f2fde38b14610747576101d8565b806395d89b41146105e8578063a22cb46514610613578063b4c8c5c41461063c578063b88d4fde14610679576101d8565b8063715018a6116100d1578063715018a61461053e5780638462151c146105555780638d859f3e146105925780638da5cb5b146105bd576101d8565b806355f804b3146104705780636352211e146104995780636bd74ecf146104d657806370a0823114610501576101d8565b806323b872dd1161017a5780633b4b1381116101495780633b4b1381146103e45780633ccfd60b1461040057806342842e0e1461040a5780634f6ccce714610433576101d8565b806323b872dd1461032a5780632f745c591461035357806330568a8d1461039057806332cb6b0c146103b9576101d8565b8063095ea7b3116101b6578063095ea7b31461028257806309d42b30146102ab57806318160ddd146102d65780631d93072814610301576101d8565b806301ffc9a7146101dd57806306fdde031461021a578063081812fc14610245575b600080fd5b3480156101e957600080fd5b5061020460048036038101906101ff91906132f2565b610770565b6040516102119190613953565b60405180910390f35b34801561022657600080fd5b5061022f610782565b60405161023c919061396e565b60405180910390f35b34801561025157600080fd5b5061026c60048036038101906102679190613385565b610814565b60405161027991906138ca565b60405180910390f35b34801561028e57600080fd5b506102a960048036038101906102a49190613271565b610899565b005b3480156102b757600080fd5b506102c06109b1565b6040516102cd9190613cb0565b60405180910390f35b3480156102e257600080fd5b506102eb6109b6565b6040516102f89190613cb0565b60405180910390f35b34801561030d57600080fd5b50610328600480360381019061032391906132ad565b6109c3565b005b34801561033657600080fd5b50610351600480360381019061034c919061316b565b610b0a565b005b34801561035f57600080fd5b5061037a60048036038101906103759190613271565b610b6a565b6040516103879190613cb0565b60405180910390f35b34801561039c57600080fd5b506103b760048036038101906103b29190613106565b610c0f565b005b3480156103c557600080fd5b506103ce610cfc565b6040516103db9190613cb0565b60405180910390f35b6103fe60048036038101906103f99190613385565b610d01565b005b610408610f20565b005b34801561041657600080fd5b50610431600480360381019061042c919061316b565b611094565b005b34801561043f57600080fd5b5061045a60048036038101906104559190613385565b6110b4565b6040516104679190613cb0565b60405180910390f35b34801561047c57600080fd5b5061049760048036038101906104929190613344565b61114b565b005b3480156104a557600080fd5b506104c060048036038101906104bb9190613385565b6111e1565b6040516104cd91906138ca565b60405180910390f35b3480156104e257600080fd5b506104eb611293565b6040516104f891906138ca565b60405180910390f35b34801561050d57600080fd5b5061052860048036038101906105239190613106565b6112b9565b6040516105359190613cb0565b60405180910390f35b34801561054a57600080fd5b50610553611371565b005b34801561056157600080fd5b5061057c60048036038101906105779190613106565b6113f9565b6040516105899190613931565b60405180910390f35b34801561059e57600080fd5b506105a76114f3565b6040516105b49190613cb0565b60405180910390f35b3480156105c957600080fd5b506105d26114fe565b6040516105df91906138ca565b60405180910390f35b3480156105f457600080fd5b506105fd611528565b60405161060a919061396e565b60405180910390f35b34801561061f57600080fd5b5061063a60048036038101906106359190613235565b6115ba565b005b34801561064857600080fd5b50610663600480360381019061065e9190613106565b6115d0565b6040516106709190613953565b60405180910390f35b34801561068557600080fd5b506106a0600480360381019061069b91906131ba565b6115f0565b005b3480156106ae57600080fd5b506106c960048036038101906106c49190613385565b611652565b6040516106d6919061396e565b60405180910390f35b3480156106eb57600080fd5b506106f4611664565b604051610701919061396e565b60405180910390f35b34801561071657600080fd5b50610731600480360381019061072c919061312f565b6116f2565b60405161073e9190613953565b60405180910390f35b34801561075357600080fd5b5061076e60048036038101906107699190613106565b611786565b005b600061077b8261187e565b9050919050565b60606000805461079190613fa4565b80601f01602080910402602001604051908101604052809291908181526020018280546107bd90613fa4565b801561080a5780601f106107df5761010080835404028352916020019161080a565b820191906000526020600020905b8154815290600101906020018083116107ed57829003601f168201915b5050505050905090565b600061081f826118f8565b61085e576040517f08c379a000000000000000000000000000000000000000000000000000000000815260040161085590613bb0565b60405180910390fd5b6004600083815260200190815260200160002060009054906101000a900473ffffffffffffffffffffffffffffffffffffffff169050919050565b60006108a4826111e1565b90508073ffffffffffffffffffffffffffffffffffffffff168373ffffffffffffffffffffffffffffffffffffffff161415610915576040517f08c379a000000000000000000000000000000000000000000000000000000000815260040161090c90613c10565b60405180910390fd5b8073ffffffffffffffffffffffffffffffffffffffff16610934611964565b73ffffffffffffffffffffffffffffffffffffffff16148061096357506109628161095d611964565b6116f2565b5b6109a2576040517f08c379a000000000000000000000000000000000000000000000000000000000815260040161099990613af0565b60405180910390fd5b6109ac838361196c565b505050565b600481565b6000600880549050905090565b6109cb611964565b73ffffffffffffffffffffffffffffffffffffffff166109e96114fe565b73ffffffffffffffffffffffffffffffffffffffff1614610a3f576040517f08c379a0000000000000000000000000000000000000000000000000000000008152600401610a3690613bd0565b60405180910390fd5b60005b82829050811015610b0557600160226000858585818110610a8c577f4e487b7100000000000000000000000000000000000000000000000000000000600052603260045260246000fd5b9050602002016020810190610aa19190613106565b73ffffffffffffffffffffffffffffffffffffffff1673ffffffffffffffffffffffffffffffffffffffff16815260200190815260200160002060006101000a81548160ff0219169083151502179055508080610afd90614007565b915050610a42565b505050565b610b1b610b15611964565b82611a25565b610b5a576040517f08c379a0000000000000000000000000000000000000000000000000000000008152600401610b5190613c70565b60405180910390fd5b610b65838383611b03565b505050565b6000610b75836112b9565b8210610bb6576040517f08c379a0000000000000000000000000000000000000000000000000000000008152600401610bad90613990565b60405180910390fd5b600660008473ffffffffffffffffffffffffffffffffffffffff1673ffffffffffffffffffffffffffffffffffffffff168152602001908152602001600020600083815260200190815260200160002054905092915050565b610c17611964565b73ffffffffffffffffffffffffffffffffffffffff16610c356114fe565b73ffffffffffffffffffffffffffffffffffffffff1614610c8b576040517f08c379a0000000000000000000000000000000000000000000000000000000008152600401610c8290613bd0565b60405180910390fd5b80602360006101000a81548173ffffffffffffffffffffffffffffffffffffffff021916908373ffffffffffffffffffffffffffffffffffffffff160217905550610cf9602360009054906101000a900473ffffffffffffffffffffffffffffffffffffffff1660016115ba565b50565b601481565b6000610d0d600d611d6a565b90506014610d248383611d7890919063ffffffff16565b1115610d65576040517f08c379a0000000000000000000000000000000000000000000000000000000008152600401610d5c90613a90565b60405180910390fd5b600082118015610d76575060048211155b610db5576040517f08c379a0000000000000000000000000000000000000000000000000000000008152600401610dac90613ab0565b60405180910390fd5b610dcf826611c37937e08000611d8e90919063ffffffff16565b341015610e11576040517f08c379a0000000000000000000000000000000000000000000000000000000008152600401610e0890613a70565b60405180910390fd5b602260003373ffffffffffffffffffffffffffffffffffffffff1673ffffffffffffffffffffffffffffffffffffffff16815260200190815260200160002060009054906101000a900460ff16610e9d576040517f08c379a0000000000000000000000000000000000000000000000000000000008152600401610e9490613c30565b60405180910390fd5b60005b82811015610ec357610eb0611da4565b8080610ebb90614007565b915050610ea0565b506000602260003373ffffffffffffffffffffffffffffffffffffffff1673ffffffffffffffffffffffffffffffffffffffff16815260200190815260200160002060006101000a81548160ff0219169083151502179055505050565b610f28611964565b73ffffffffffffffffffffffffffffffffffffffff16610f466114fe565b73ffffffffffffffffffffffffffffffffffffffff1614610f9c576040517f08c379a0000000000000000000000000000000000000000000000000000000008152600401610f9390613bd0565b60405180910390fd5b600047905060008111610fe4576040517f08c379a0000000000000000000000000000000000000000000000000000000008152600401610fdb90613b70565b60405180910390fd5b60003373ffffffffffffffffffffffffffffffffffffffff168260405161100a906138b5565b60006040518083038185875af1925050503d8060008114611047576040519150601f19603f3d011682016040523d82523d6000602084013e61104c565b606091505b5050905080611090576040517f08c379a000000000000000000000000000000000000000000000000000000000815260040161108790613c50565b60405180910390fd5b5050565b6110af838383604051806020016040528060008152506115f0565b505050565b60006110be6109b6565b82106110ff576040517f08c379a00000000000000000000000000000000000000000000000000000000081526004016110f690613c90565b60405180910390fd5b60088281548110611139577f4e487b7100000000000000000000000000000000000000000000000000000000600052603260045260246000fd5b90600052602060002001549050919050565b611153611964565b73ffffffffffffffffffffffffffffffffffffffff166111716114fe565b73ffffffffffffffffffffffffffffffffffffffff16146111c7576040517f08c379a00000000000000000000000000000000000000000000000000000000081526004016111be90613bd0565b60405180910390fd5b80600c90805190602001906111dd929190612ee0565b5050565b6000806002600084815260200190815260200160002060009054906101000a900473ffffffffffffffffffffffffffffffffffffffff169050600073ffffffffffffffffffffffffffffffffffffffff168173ffffffffffffffffffffffffffffffffffffffff16141561128a576040517f08c379a000000000000000000000000000000000000000000000000000000000815260040161128190613b30565b60405180910390fd5b80915050919050565b602360009054906101000a900473ffffffffffffffffffffffffffffffffffffffff1681565b60008073ffffffffffffffffffffffffffffffffffffffff168273ffffffffffffffffffffffffffffffffffffffff16141561132a576040517f08c379a000000000000000000000000000000000000000000000000000000000815260040161132190613b10565b60405180910390fd5b600360008373ffffffffffffffffffffffffffffffffffffffff1673ffffffffffffffffffffffffffffffffffffffff168152602001908152602001600020549050919050565b611379611964565b73ffffffffffffffffffffffffffffffffffffffff166113976114fe565b73ffffffffffffffffffffffffffffffffffffffff16146113ed576040517f08c379a00000000000000000000000000000000000000000000000000000000081526004016113e490613bd0565b60405180910390fd5b6113f76000611e04565b565b60606000611406836112b9565b905060008167ffffffffffffffff81111561144a577f4e487b7100000000000000000000000000000000000000000000000000000000600052604160045260246000fd5b6040519080825280602002602001820160405280156114785781602001602082028036833780820191505090505b50905060005b828110156114e8576114908582610b6a565b8282815181106114c9577f4e487b7100000000000000000000000000000000000000000000000000000000600052603260045260246000fd5b60200260200101818152505080806114e090614007565b91505061147e565b508092505050919050565b6611c37937e0800081565b6000600b60009054906101000a900473ffffffffffffffffffffffffffffffffffffffff16905090565b60606001805461153790613fa4565b80601f016020809104026020016040519081016040528092919081815260200182805461156390613fa4565b80156115b05780601f10611585576101008083540402835291602001916115b0565b820191906000526020600020905b81548152906001019060200180831161159357829003601f168201915b5050505050905090565b6115cc6115c5611964565b8383611eca565b5050565b60226020528060005260406000206000915054906101000a900460ff1681565b6116016115fb611964565b83611a25565b611640576040517f08c379a000000000000000000000000000000000000000000000000000000000815260040161163790613c70565b60405180910390fd5b61164c84848484612037565b50505050565b606061165d82612093565b9050919050565b600c805461167190613fa4565b80601f016020809104026020016040519081016040528092919081815260200182805461169d90613fa4565b80156116ea5780601f106116bf576101008083540402835291602001916116ea565b820191906000526020600020905b8154815290600101906020018083116116cd57829003601f168201915b505050505081565b6000600560008473ffffffffffffffffffffffffffffffffffffffff1673ffffffffffffffffffffffffffffffffffffffff16815260200190815260200160002060008373ffffffffffffffffffffffffffffffffffffffff1673ffffffffffffffffffffffffffffffffffffffff16815260200190815260200160002060009054906101000a900460ff16905092915050565b61178e611964565b73ffffffffffffffffffffffffffffffffffffffff166117ac6114fe565b73ffffffffffffffffffffffffffffffffffffffff1614611802576040517f08c379a00000000000000000000000000000000000000000000000000000000081526004016117f990613bd0565b60405180910390fd5b600073ffffffffffffffffffffffffffffffffffffffff168173ffffffffffffffffffffffffffffffffffffffff161415611872576040517f08c379a0000000000000000000000000000000000000000000000000000000008152600401611869906139d0565b60405180910390fd5b61187b81611e04565b50565b60007f780e9d63000000000000000000000000000000000000000000000000000000007bffffffffffffffffffffffffffffffffffffffffffffffffffffffff1916827bffffffffffffffffffffffffffffffffffffffffffffffffffffffff191614806118f157506118f0826121e5565b5b9050919050565b60008073ffffffffffffffffffffffffffffffffffffffff166002600084815260200190815260200160002060009054906101000a900473ffffffffffffffffffffffffffffffffffffffff1673ffffffffffffffffffffffffffffffffffffffff1614159050919050565b600033905090565b816004600083815260200190815260200160002060006101000a81548173ffffffffffffffffffffffffffffffffffffffff021916908373ffffffffffffffffffffffffffffffffffffffff160217905550808273ffffffffffffffffffffffffffffffffffffffff166119df836111e1565b73ffffffffffffffffffffffffffffffffffffffff167f8c5be1e5ebec7d5bd14f71427d1e84f3dd0314c0f7b2291e5b200ac8c7c3b92560405160405180910390a45050565b6000611a30826118f8565b611a6f576040517f08c379a0000000000000000000000000000000000000000000000000000000008152600401611a6690613ad0565b60405180910390fd5b6000611a7a836111e1565b90508073ffffffffffffffffffffffffffffffffffffffff168473ffffffffffffffffffffffffffffffffffffffff161480611ae957508373ffffffffffffffffffffffffffffffffffffffff16611ad184610814565b73ffffffffffffffffffffffffffffffffffffffff16145b80611afa5750611af981856116f2565b5b91505092915050565b8273ffffffffffffffffffffffffffffffffffffffff16611b23826111e1565b73ffffffffffffffffffffffffffffffffffffffff1614611b79576040517f08c379a0000000000000000000000000000000000000000000000000000000008152600401611b70906139f0565b60405180910390fd5b600073ffffffffffffffffffffffffffffffffffffffff168273ffffffffffffffffffffffffffffffffffffffff161415611be9576040517f08c379a0000000000000000000000000000000000000000000000000000000008152600401611be090613a30565b60405180910390fd5b611bf48383836122c7565b611bff60008261196c565b6001600360008573ffffffffffffffffffffffffffffffffffffffff1673ffffffffffffffffffffffffffffffffffffffff1681526020019081526020016000206000828254611c4f9190613eba565b925050819055506001600360008473ffffffffffffffffffffffffffffffffffffffff1673ffffffffffffffffffffffffffffffffffffffff1681526020019081526020016000206000828254611ca69190613dd9565b92505081905550816002600083815260200190815260200160002060006101000a81548173ffffffffffffffffffffffffffffffffffffffff021916908373ffffffffffffffffffffffffffffffffffffffff160217905550808273ffffffffffffffffffffffffffffffffffffffff168473ffffffffffffffffffffffffffffffffffffffff167fddf252ad1be2c89b69c2b068fc378daa952ba7f163c4a11628f55a4df523b3ef60405160405180910390a4611d658383836122d7565b505050565b600081600001549050919050565b60008183611d869190613dd9565b905092915050565b60008183611d9c9190613e60565b905092915050565b6000611db0600d611d6a565b9050611df733600e8360148110611df0577f4e487b7100000000000000000000000000000000000000000000000000000000600052603260045260246000fd5b01546122dc565b611e01600d6122fa565b50565b6000600b60009054906101000a900473ffffffffffffffffffffffffffffffffffffffff16905081600b60006101000a81548173ffffffffffffffffffffffffffffffffffffffff021916908373ffffffffffffffffffffffffffffffffffffffff1602179055508173ffffffffffffffffffffffffffffffffffffffff168173ffffffffffffffffffffffffffffffffffffffff167f8be0079c531659141344cd1fd0a4f28419497f9722a3daafe3b4186f6b6457e060405160405180910390a35050565b8173ffffffffffffffffffffffffffffffffffffffff168373ffffffffffffffffffffffffffffffffffffffff161415611f39576040517f08c379a0000000000000000000000000000000000000000000000000000000008152600401611f3090613a50565b60405180910390fd5b80600560008573ffffffffffffffffffffffffffffffffffffffff1673ffffffffffffffffffffffffffffffffffffffff16815260200190815260200160002060008473ffffffffffffffffffffffffffffffffffffffff1673ffffffffffffffffffffffffffffffffffffffff16815260200190815260200160002060006101000a81548160ff0219169083151502179055508173ffffffffffffffffffffffffffffffffffffffff168373ffffffffffffffffffffffffffffffffffffffff167f17307eab39ab6107e8899845ad3d59bd9653f200f220920489ca2b5937696c318360405161202a9190613953565b60405180910390a3505050565b612042848484611b03565b61204e84848484612310565b61208d576040517f08c379a0000000000000000000000000000000000000000000000000000000008152600401612084906139b0565b60405180910390fd5b50505050565b606061209e826118f8565b6120dd576040517f08c379a00000000000000000000000000000000000000000000000000000000081526004016120d490613b90565b60405180910390fd5b6000600a600084815260200190815260200160002080546120fd90613fa4565b80601f016020809104026020016040519081016040528092919081815260200182805461212990613fa4565b80156121765780601f1061214b57610100808354040283529160200191612176565b820191906000526020600020905b81548152906001019060200180831161215957829003601f168201915b5050505050905060006121876124a7565b905060008151141561219d5781925050506121e0565b6000825111156121d25780826040516020016121ba929190613891565b604051602081830303815290604052925050506121e0565b6121db84612539565b925050505b919050565b60007f80ac58cd000000000000000000000000000000000000000000000000000000007bffffffffffffffffffffffffffffffffffffffffffffffffffffffff1916827bffffffffffffffffffffffffffffffffffffffffffffffffffffffff191614806122b057507f5b5e139f000000000000000000000000000000000000000000000000000000007bffffffffffffffffffffffffffffffffffffffffffffffffffffffff1916827bffffffffffffffffffffffffffffffffffffffffffffffffffffffff1916145b806122c057506122bf826125e0565b5b9050919050565b6122d283838361264a565b505050565b505050565b6122f682826040518060200160405280600081525061275e565b5050565b6001816000016000828254019250508190555050565b60006123318473ffffffffffffffffffffffffffffffffffffffff166127b9565b1561249a578373ffffffffffffffffffffffffffffffffffffffff1663150b7a0261235a611964565b8786866040518563ffffffff1660e01b815260040161237c94939291906138e5565b602060405180830381600087803b15801561239657600080fd5b505af19250505080156123c757506040513d601f19601f820116820180604052508101906123c4919061331b565b60015b61244a573d80600081146123f7576040519150601f19603f3d011682016040523d82523d6000602084013e6123fc565b606091505b50600081511415612442576040517f08c379a0000000000000000000000000000000000000000000000000000000008152600401612439906139b0565b60405180910390fd5b805181602001fd5b63150b7a0260e01b7bffffffffffffffffffffffffffffffffffffffffffffffffffffffff1916817bffffffffffffffffffffffffffffffffffffffffffffffffffffffff19161491505061249f565b600190505b949350505050565b6060600c80546124b690613fa4565b80601f01602080910402602001604051908101604052809291908181526020018280546124e290613fa4565b801561252f5780601f106125045761010080835404028352916020019161252f565b820191906000526020600020905b81548152906001019060200180831161251257829003601f168201915b5050505050905090565b6060612544826118f8565b612583576040517f08c379a000000000000000000000000000000000000000000000000000000000815260040161257a90613bf0565b60405180910390fd5b600061258d6124a7565b905060008151116125ad57604051806020016040528060008152506125d8565b806125b7846127dc565b6040516020016125c8929190613891565b6040516020818303038152906040525b915050919050565b60007f01ffc9a7000000000000000000000000000000000000000000000000000000007bffffffffffffffffffffffffffffffffffffffffffffffffffffffff1916827bffffffffffffffffffffffffffffffffffffffffffffffffffffffff1916149050919050565b612655838383612989565b600073ffffffffffffffffffffffffffffffffffffffff168373ffffffffffffffffffffffffffffffffffffffff161415612698576126938161298e565b6126d7565b8173ffffffffffffffffffffffffffffffffffffffff168373ffffffffffffffffffffffffffffffffffffffff16146126d6576126d583826129d7565b5b5b600073ffffffffffffffffffffffffffffffffffffffff168273ffffffffffffffffffffffffffffffffffffffff16141561271a5761271581612b44565b612759565b8273ffffffffffffffffffffffffffffffffffffffff168273ffffffffffffffffffffffffffffffffffffffff1614612758576127578282612c87565b5b5b505050565b6127688383612d06565b6127756000848484612310565b6127b4576040517f08c379a00000000000000000000000000000000000000000000000000000000081526004016127ab906139b0565b60405180910390fd5b505050565b6000808273ffffffffffffffffffffffffffffffffffffffff163b119050919050565b60606000821415612824576040518060400160405280600181526020017f30000000000000000000000000000000000000000000000000000000000000008152509050612984565b600082905060005b6000821461285657808061283f90614007565b915050600a8261284f9190613e2f565b915061282c565b60008167ffffffffffffffff811115612898577f4e487b7100000000000000000000000000000000000000000000000000000000600052604160045260246000fd5b6040519080825280601f01601f1916602001820160405280156128ca5781602001600182028036833780820191505090505b5090505b6000851461297d576001826128e39190613eba565b9150600a856128f29190614050565b60306128fe9190613dd9565b60f81b81838151811061293a577f4e487b7100000000000000000000000000000000000000000000000000000000600052603260045260246000fd5b60200101907effffffffffffffffffffffffffffffffffffffffffffffffffffffffffffff1916908160001a905350600a856129769190613e2f565b94506128ce565b8093505050505b919050565b505050565b6008805490506009600083815260200190815260200160002081905550600881908060018154018082558091505060019003906000526020600020016000909190919091505550565b600060016129e4846112b9565b6129ee9190613eba565b9050600060076000848152602001908152602001600020549050818114612ad3576000600660008673ffffffffffffffffffffffffffffffffffffffff1673ffffffffffffffffffffffffffffffffffffffff168152602001908152602001600020600084815260200190815260200160002054905080600660008773ffffffffffffffffffffffffffffffffffffffff1673ffffffffffffffffffffffffffffffffffffffff168152602001908152602001600020600084815260200190815260200160002081905550816007600083815260200190815260200160002081905550505b6007600084815260200190815260200160002060009055600660008573ffffffffffffffffffffffffffffffffffffffff1673ffffffffffffffffffffffffffffffffffffffff16815260200190815260200160002060008381526020019081526020016000206000905550505050565b60006001600880549050612b589190613eba565b9050600060096000848152602001908152602001600020549050600060088381548110612bae577f4e487b7100000000000000000000000000000000000000000000000000000000600052603260045260246000fd5b906000526020600020015490508060088381548110612bf6577f4e487b7100000000000000000000000000000000000000000000000000000000600052603260045260246000fd5b906000526020600020018190555081600960008381526020019081526020016000208190555060096000858152602001908152602001600020600090556008805480612c6b577f4e487b7100000000000000000000000000000000000000000000000000000000600052603160045260246000fd5b6001900381819060005260206000200160009055905550505050565b6000612c92836112b9565b905081600660008573ffffffffffffffffffffffffffffffffffffffff1673ffffffffffffffffffffffffffffffffffffffff168152602001908152602001600020600083815260200190815260200160002081905550806007600084815260200190815260200160002081905550505050565b600073ffffffffffffffffffffffffffffffffffffffff168273ffffffffffffffffffffffffffffffffffffffff161415612d76576040517f08c379a0000000000000000000000000000000000000000000000000000000008152600401612d6d90613b50565b60405180910390fd5b612d7f816118f8565b15612dbf576040517f08c379a0000000000000000000000000000000000000000000000000000000008152600401612db690613a10565b60405180910390fd5b612dcb600083836122c7565b6001600360008473ffffffffffffffffffffffffffffffffffffffff1673ffffffffffffffffffffffffffffffffffffffff1681526020019081526020016000206000828254612e1b9190613dd9565b92505081905550816002600083815260200190815260200160002060006101000a81548173ffffffffffffffffffffffffffffffffffffffff021916908373ffffffffffffffffffffffffffffffffffffffff160217905550808273ffffffffffffffffffffffffffffffffffffffff16600073ffffffffffffffffffffffffffffffffffffffff167fddf252ad1be2c89b69c2b068fc378daa952ba7f163c4a11628f55a4df523b3ef60405160405180910390a4612edc600083836122d7565b5050565b828054612eec90613fa4565b90600052602060002090601f016020900481019282612f0e5760008555612f55565b82601f10612f2757805160ff1916838001178555612f55565b82800160010185558215612f55579182015b82811115612f54578251825591602001919060010190612f39565b5b509050612f629190612f66565b5090565b5b80821115612f7f576000816000905550600101612f67565b5090565b6000612f96612f9184613cf0565b613ccb565b905082815260208101848484011115612fae57600080fd5b612fb9848285613f62565b509392505050565b6000612fd4612fcf84613d21565b613ccb565b905082815260208101848484011115612fec57600080fd5b612ff7848285613f62565b509392505050565b60008135905061300e816147d8565b92915050565b60008083601f84011261302657600080fd5b8235905067ffffffffffffffff81111561303f57600080fd5b60208301915083602082028301111561305757600080fd5b9250929050565b60008135905061306d816147ef565b92915050565b60008135905061308281614806565b92915050565b60008151905061309781614806565b92915050565b600082601f8301126130ae57600080fd5b81356130be848260208601612f83565b91505092915050565b600082601f8301126130d857600080fd5b81356130e8848260208601612fc1565b91505092915050565b6000813590506131008161481d565b92915050565b60006020828403121561311857600080fd5b600061312684828501612fff565b91505092915050565b6000806040838503121561314257600080fd5b600061315085828601612fff565b925050602061316185828601612fff565b9150509250929050565b60008060006060848603121561318057600080fd5b600061318e86828701612fff565b935050602061319f86828701612fff565b92505060406131b0868287016130f1565b9150509250925092565b600080600080608085870312156131d057600080fd5b60006131de87828801612fff565b94505060206131ef87828801612fff565b9350506040613200878288016130f1565b925050606085013567ffffffffffffffff81111561321d57600080fd5b6132298782880161309d565b91505092959194509250565b6000806040838503121561324857600080fd5b600061325685828601612fff565b92505060206132678582860161305e565b9150509250929050565b6000806040838503121561328457600080fd5b600061329285828601612fff565b92505060206132a3858286016130f1565b9150509250929050565b600080602083850312156132c057600080fd5b600083013567ffffffffffffffff8111156132da57600080fd5b6132e685828601613014565b92509250509250929050565b60006020828403121561330457600080fd5b600061331284828501613073565b91505092915050565b60006020828403121561332d57600080fd5b600061333b84828501613088565b91505092915050565b60006020828403121561335657600080fd5b600082013567ffffffffffffffff81111561337057600080fd5b61337c848285016130c7565b91505092915050565b60006020828403121561339757600080fd5b60006133a5848285016130f1565b91505092915050565b60006133ba8383613873565b60208301905092915050565b6133cf81613eee565b82525050565b60006133e082613d62565b6133ea8185613d90565b93506133f583613d52565b8060005b8381101561342657815161340d88826133ae565b975061341883613d83565b9250506001810190506133f9565b5085935050505092915050565b61343c81613f00565b82525050565b600061344d82613d6d565b6134578185613da1565b9350613467818560208601613f71565b6134708161413d565b840191505092915050565b600061348682613d78565b6134908185613dbd565b93506134a0818560208601613f71565b6134a98161413d565b840191505092915050565b60006134bf82613d78565b6134c98185613dce565b93506134d9818560208601613f71565b80840191505092915050565b60006134f2602b83613dbd565b91506134fd8261414e565b604082019050919050565b6000613515603283613dbd565b91506135208261419d565b604082019050919050565b6000613538602683613dbd565b9150613543826141ec565b604082019050919050565b600061355b602583613dbd565b91506135668261423b565b604082019050919050565b600061357e601c83613dbd565b91506135898261428a565b602082019050919050565b60006135a1602483613dbd565b91506135ac826142b3565b604082019050919050565b60006135c4601983613dbd565b91506135cf82614302565b602082019050919050565b60006135e7602283613dbd565b91506135f28261432b565b604082019050919050565b600061360a601583613dbd565b91506136158261437a565b602082019050919050565b600061362d602583613dbd565b9150613638826143a3565b604082019050919050565b6000613650602c83613dbd565b915061365b826143f2565b604082019050919050565b6000613673603883613dbd565b915061367e82614441565b604082019050919050565b6000613696602a83613dbd565b91506136a182614490565b604082019050919050565b60006136b9602983613dbd565b91506136c4826144df565b604082019050919050565b60006136dc602083613dbd565b91506136e78261452e565b602082019050919050565b60006136ff601983613dbd565b915061370a82614557565b602082019050919050565b6000613722603183613dbd565b915061372d82614580565b604082019050919050565b6000613745602c83613dbd565b9150613750826145cf565b604082019050919050565b6000613768602083613dbd565b91506137738261461e565b602082019050919050565b600061378b602f83613dbd565b915061379682614647565b604082019050919050565b60006137ae602183613dbd565b91506137b982614696565b604082019050919050565b60006137d1600083613db2565b91506137dc826146e5565b600082019050919050565b60006137f4601f83613dbd565b91506137ff826146e8565b602082019050919050565b6000613817601083613dbd565b915061382282614711565b602082019050919050565b600061383a603183613dbd565b91506138458261473a565b604082019050919050565b600061385d602c83613dbd565b915061386882614789565b604082019050919050565b61387c81613f58565b82525050565b61388b81613f58565b82525050565b600061389d82856134b4565b91506138a982846134b4565b91508190509392505050565b60006138c0826137c4565b9150819050919050565b60006020820190506138df60008301846133c6565b92915050565b60006080820190506138fa60008301876133c6565b61390760208301866133c6565b6139146040830185613882565b81810360608301526139268184613442565b905095945050505050565b6000602082019050818103600083015261394b81846133d5565b905092915050565b60006020820190506139686000830184613433565b92915050565b60006020820190508181036000830152613988818461347b565b905092915050565b600060208201905081810360008301526139a9816134e5565b9050919050565b600060208201905081810360008301526139c981613508565b9050919050565b600060208201905081810360008301526139e98161352b565b9050919050565b60006020820190508181036000830152613a098161354e565b9050919050565b60006020820190508181036000830152613a2981613571565b9050919050565b60006020820190508181036000830152613a4981613594565b9050919050565b60006020820190508181036000830152613a69816135b7565b9050919050565b60006020820190508181036000830152613a89816135da565b9050919050565b60006020820190508181036000830152613aa9816135fd565b9050919050565b60006020820190508181036000830152613ac981613620565b9050919050565b60006020820190508181036000830152613ae981613643565b9050919050565b60006020820190508181036000830152613b0981613666565b9050919050565b60006020820190508181036000830152613b2981613689565b9050919050565b60006020820190508181036000830152613b49816136ac565b9050919050565b60006020820190508181036000830152613b69816136cf565b9050919050565b60006020820190508181036000830152613b89816136f2565b9050919050565b60006020820190508181036000830152613ba981613715565b9050919050565b60006020820190508181036000830152613bc981613738565b9050919050565b60006020820190508181036000830152613be98161375b565b9050919050565b60006020820190508181036000830152613c098161377e565b9050919050565b60006020820190508181036000830152613c29816137a1565b9050919050565b60006020820190508181036000830152613c49816137e7565b9050919050565b60006020820190508181036000830152613c698161380a565b9050919050565b60006020820190508181036000830152613c898161382d565b9050919050565b60006020820190508181036000830152613ca981613850565b9050919050565b6000602082019050613cc56000830184613882565b92915050565b6000613cd5613ce6565b9050613ce18282613fd6565b919050565b6000604051905090565b600067ffffffffffffffff821115613d0b57613d0a61410e565b5b613d148261413d565b9050602081019050919050565b600067ffffffffffffffff821115613d3c57613d3b61410e565b5b613d458261413d565b9050602081019050919050565b6000819050602082019050919050565b600081519050919050565b600081519050919050565b600081519050919050565b6000602082019050919050565b600082825260208201905092915050565b600082825260208201905092915050565b600081905092915050565b600082825260208201905092915050565b600081905092915050565b6000613de482613f58565b9150613def83613f58565b9250827fffffffffffffffffffffffffffffffffffffffffffffffffffffffffffffffff03821115613e2457613e23614081565b5b828201905092915050565b6000613e3a82613f58565b9150613e4583613f58565b925082613e5557613e546140b0565b5b828204905092915050565b6000613e6b82613f58565b9150613e7683613f58565b9250817fffffffffffffffffffffffffffffffffffffffffffffffffffffffffffffffff0483118215151615613eaf57613eae614081565b5b828202905092915050565b6000613ec582613f58565b9150613ed083613f58565b925082821015613ee357613ee2614081565b5b828203905092915050565b6000613ef982613f38565b9050919050565b60008115159050919050565b60007fffffffff0000000000000000000000000000000000000000000000000000000082169050919050565b600073ffffffffffffffffffffffffffffffffffffffff82169050919050565b6000819050919050565b82818337600083830152505050565b60005b83811015613f8f578082015181840152602081019050613f74565b83811115613f9e576000848401525b50505050565b60006002820490506001821680613fbc57607f821691505b60208210811415613fd057613fcf6140df565b5b50919050565b613fdf8261413d565b810181811067ffffffffffffffff82111715613ffe57613ffd61410e565b5b80604052505050565b600061401282613f58565b91507fffffffffffffffffffffffffffffffffffffffffffffffffffffffffffffffff82141561404557614044614081565b5b600182019050919050565b600061405b82613f58565b915061406683613f58565b925082614076576140756140b0565b5b828206905092915050565b7f4e487b7100000000000000000000000000000000000000000000000000000000600052601160045260246000fd5b7f4e487b7100000000000000000000000000000000000000000000000000000000600052601260045260246000fd5b7f4e487b7100000000000000000000000000000000000000000000000000000000600052602260045260246000fd5b7f4e487b7100000000000000000000000000000000000000000000000000000000600052604160045260246000fd5b6000601f19601f8301169050919050565b7f455243373231456e756d657261626c653a206f776e657220696e646578206f7560008201527f74206f6620626f756e6473000000000000000000000000000000000000000000602082015250565b7f4552433732313a207472616e7366657220746f206e6f6e20455243373231526560008201527f63656976657220696d706c656d656e7465720000000000000000000000000000602082015250565b7f4f776e61626c653a206e6577206f776e657220697320746865207a65726f206160008201527f6464726573730000000000000000000000000000000000000000000000000000602082015250565b7f4552433732313a207472616e736665722066726f6d20696e636f72726563742060008201527f6f776e6572000000000000000000000000000000000000000000000000000000602082015250565b7f4552433732313a20746f6b656e20616c7265616479206d696e74656400000000600082015250565b7f4552433732313a207472616e7366657220746f20746865207a65726f2061646460008201527f7265737300000000000000000000000000000000000000000000000000000000602082015250565b7f4552433732313a20617070726f766520746f2063616c6c657200000000000000600082015250565b7f4e6f7420656e6f75676820657468657220746f207075726368617365204e465460008201527f732e000000000000000000000000000000000000000000000000000000000000602082015250565b7f4e6f7420656e6f756768204e465473206c656674210000000000000000000000600082015250565b7f43616e6e6f74206d696e7420737065636966696564206e756d626572206f662060008201527f4e4654732e000000000000000000000000000000000000000000000000000000602082015250565b7f4552433732313a206f70657261746f7220717565727920666f72206e6f6e657860008201527f697374656e7420746f6b656e0000000000000000000000000000000000000000602082015250565b7f4552433732313a20617070726f76652063616c6c6572206973206e6f74206f7760008201527f6e6572206e6f7220617070726f76656420666f7220616c6c0000000000000000602082015250565b7f4552433732313a2062616c616e636520717565727920666f7220746865207a6560008201527f726f206164647265737300000000000000000000000000000000000000000000602082015250565b7f4552433732313a206f776e657220717565727920666f72206e6f6e657869737460008201527f656e7420746f6b656e0000000000000000000000000000000000000000000000602082015250565b7f4552433732313a206d696e7420746f20746865207a65726f2061646472657373600082015250565b7f4e6f206574686572206c65667420746f20776974686472617700000000000000600082015250565b7f45524337323155524953746f726167653a2055524920717565727920666f722060008201527f6e6f6e6578697374656e7420746f6b656e000000000000000000000000000000602082015250565b7f4552433732313a20617070726f76656420717565727920666f72206e6f6e657860008201527f697374656e7420746f6b656e0000000000000000000000000000000000000000602082015250565b7f4f776e61626c653a2063616c6c6572206973206e6f7420746865206f776e6572600082015250565b7f4552433732314d657461646174613a2055524920717565727920666f72206e6f60008201527f6e6578697374656e7420746f6b656e0000000000000000000000000000000000602082015250565b7f4552433732313a20617070726f76616c20746f2063757272656e74206f776e6560008201527f7200000000000000000000000000000000000000000000000000000000000000602082015250565b50565b7f41646472657373206973206e6f7420616c6c6f77656420746f206d696e742e00600082015250565b7f5472616e73666572206661696c65642e00000000000000000000000000000000600082015250565b7f4552433732313a207472616e736665722063616c6c6572206973206e6f74206f60008201527f776e6572206e6f7220617070726f766564000000000000000000000000000000602082015250565b7f455243373231456e756d657261626c653a20676c6f62616c20696e646578206f60008201527f7574206f6620626f756e64730000000000000000000000000000000000000000602082015250565b6147e181613eee565b81146147ec57600080fd5b50565b6147f881613f00565b811461480357600080fd5b50565b61480f81613f0c565b811461481a57600080fd5b50565b61482681613f58565b811461483157600080fd5b5056fea26469706673582212205bc3aca4e3618894f211704375fe5e4cd566e01c829dfbae93366f52bfed3f7864736f6c63430008040033",
  "linkReferences": {},
  "deployedLinkReferences": {}
}